{
  "contractName": "DonationContract",
  "abi": [
    {
      "inputs": [
        {
          "internalType": "address payable",
          "name": "_donor",
          "type": "address"
        },
        {
          "internalType": "address payable",
          "name": "_ngo",
          "type": "address"
        }
      ],
      "stateMutability": "nonpayable",
      "type": "constructor"
    },
    {
      "inputs": [],
      "name": "balance",
      "outputs": [
        {
          "internalType": "uint256",
          "name": "",
          "type": "uint256"
        }
      ],
      "stateMutability": "view",
      "type": "function",
      "constant": true
    },
    {
      "inputs": [],
      "name": "donationAmount",
      "outputs": [
        {
          "internalType": "uint256",
          "name": "",
          "type": "uint256"
        }
      ],
      "stateMutability": "view",
      "type": "function",
      "constant": true
    },
    {
      "inputs": [],
      "name": "donor",
      "outputs": [
        {
          "internalType": "address payable",
          "name": "",
          "type": "address"
        }
      ],
      "stateMutability": "view",
      "type": "function",
      "constant": true
    },
    {
      "inputs": [],
      "name": "ngo",
      "outputs": [
        {
          "internalType": "address payable",
          "name": "",
          "type": "address"
        }
      ],
      "stateMutability": "view",
      "type": "function",
      "constant": true
    },
    {
      "inputs": [],
      "name": "requestCounter",
      "outputs": [
        {
          "internalType": "uint256",
          "name": "",
          "type": "uint256"
        }
      ],
      "stateMutability": "view",
      "type": "function",
      "constant": true
    },
    {
      "inputs": [],
      "name": "spendingApproved",
      "outputs": [
        {
          "internalType": "bool",
          "name": "",
          "type": "bool"
        }
      ],
      "stateMutability": "view",
      "type": "function",
      "constant": true
    },
    {
      "inputs": [],
      "name": "spentAmount",
      "outputs": [
        {
          "internalType": "uint256",
          "name": "",
          "type": "uint256"
        }
      ],
      "stateMutability": "view",
      "type": "function",
      "constant": true
    },
    {
      "inputs": [],
      "name": "donate",
      "outputs": [],
      "stateMutability": "payable",
      "type": "function",
      "payable": true
    },
    {
      "inputs": [
        {
          "internalType": "string",
          "name": "_description",
          "type": "string"
        },
        {
          "internalType": "uint256",
          "name": "_amount",
          "type": "uint256"
        },
        {
          "internalType": "address payable",
          "name": "_recipient",
          "type": "address"
        }
      ],
      "name": "createSpendingRequest",
      "outputs": [],
      "stateMutability": "payable",
      "type": "function",
      "payable": true
    },
    {
      "inputs": [
        {
          "internalType": "uint256",
          "name": "_requestId",
          "type": "uint256"
        }
      ],
      "name": "approveSpendingRequest",
      "outputs": [],
      "stateMutability": "nonpayable",
      "type": "function"
    },
    {
      "inputs": [],
      "name": "releaseFunds",
      "outputs": [],
      "stateMutability": "payable",
      "type": "function",
      "payable": true
    },
    {
      "inputs": [],
      "name": "approveAllSpendingRequests",
      "outputs": [],
      "stateMutability": "nonpayable",
      "type": "function"
    },
    {
      "inputs": [],
      "name": "getDonationDetails",
      "outputs": [
        {
          "internalType": "address",
          "name": "",
          "type": "address"
        },
        {
          "internalType": "address",
          "name": "",
          "type": "address"
        },
        {
          "internalType": "uint256",
          "name": "",
          "type": "uint256"
        },
        {
          "internalType": "uint256",
          "name": "",
          "type": "uint256"
        },
        {
          "internalType": "uint256",
          "name": "",
          "type": "uint256"
        },
        {
          "internalType": "bool",
          "name": "",
          "type": "bool"
        }
      ],
      "stateMutability": "view",
      "type": "function",
      "constant": true
    },
    {
      "inputs": [
        {
          "internalType": "uint256",
          "name": "_requestId",
          "type": "uint256"
        }
      ],
      "name": "getSpendingRequest",
      "outputs": [
        {
          "internalType": "string",
          "name": "",
          "type": "string"
        },
        {
          "internalType": "uint256",
          "name": "",
          "type": "uint256"
        },
        {
          "internalType": "bool",
          "name": "",
          "type": "bool"
        },
        {
          "internalType": "address payable",
          "name": "",
          "type": "address"
        }
      ],
      "stateMutability": "view",
      "type": "function",
      "constant": true
    },
    {
      "inputs": [],
      "name": "getSpendingRequestCount",
      "outputs": [
        {
          "internalType": "uint256",
          "name": "",
          "type": "uint256"
        }
      ],
      "stateMutability": "view",
      "type": "function",
      "constant": true
    },
    {
      "inputs": [],
      "name": "getBalance",
      "outputs": [
        {
          "internalType": "uint256",
          "name": "",
          "type": "uint256"
        }
      ],
      "stateMutability": "view",
      "type": "function",
      "constant": true
    },
    {
      "inputs": [],
      "name": "getAllRequests",
      "outputs": [
        {
          "components": [
            {
              "internalType": "string",
              "name": "description",
              "type": "string"
            },
            {
              "internalType": "uint256",
              "name": "amount",
              "type": "uint256"
            },
            {
              "internalType": "bool",
              "name": "approved",
              "type": "bool"
            },
            {
              "internalType": "address payable",
              "name": "recipient",
              "type": "address"
            }
          ],
          "internalType": "struct DonationContract.SpendingRequest[]",
          "name": "",
          "type": "tuple[]"
        }
      ],
      "stateMutability": "view",
      "type": "function",
      "constant": true
    }
  ],
  "bytecode": "0x60806040523480156200001157600080fd5b5060405162001c1738038062001c1783398181016040528101906200003791906200013c565b816000806101000a81548173ffffffffffffffffffffffffffffffffffffffff021916908373ffffffffffffffffffffffffffffffffffffffff16021790555080600160006101000a81548173ffffffffffffffffffffffffffffffffffffffff021916908373ffffffffffffffffffffffffffffffffffffffff1602179055506a084595161401484a000000600381905550505062000183565b600080fd5b600073ffffffffffffffffffffffffffffffffffffffff82169050919050565b60006200010482620000d7565b9050919050565b6200011681620000f7565b81146200012257600080fd5b50565b60008151905062000136816200010b565b92915050565b60008060408385031215620001565762000155620000d2565b5b6000620001668582860162000125565b9250506020620001798582860162000125565b9150509250929050565b611a8480620001936000396000f3fe6080604052600436106100fe5760003560e01c80638810c6d911610095578063e53f163211610064578063e53f1632146102da578063e6bc6c82146102f1578063ed88c68e1461031c578063fb1a002a14610326578063fdba0ed914610351576100fe565b80638810c6d91461023d578063973a814e14610259578063a113074b14610284578063b69ef8a8146102af576100fe565b80634bed6c23116100d15780634bed6c23146101b45780636178d8a1146101df57806369d895751461020a5780636cf8786214610214576100fe565b806312065fe01461010357806325223bd41461012e57806345f5160014610159578063485facba14610184575b600080fd5b34801561010f57600080fd5b50610118610391565b6040516101259190610e6b565b60405180910390f35b34801561013a57600080fd5b5061014361039b565b6040516101509190610ec7565b60405180910390f35b34801561016557600080fd5b5061016e6103bf565b60405161017b9190610e6b565b60405180910390f35b34801561019057600080fd5b506101996103c5565b6040516101ab96959493929190610f1e565b60405180910390f35b3480156101c057600080fd5b506101c961043f565b6040516101d69190610e6b565b60405180910390f35b3480156101eb57600080fd5b506101f4610445565b6040516102019190610f7f565b60405180910390f35b610212610458565b005b34801561022057600080fd5b5061023b60048036038101906102369190610fda565b61054f565b005b61025760048036038101906102529190611179565b6106a9565b005b34801561026557600080fd5b5061026e610800565b60405161027b9190610e6b565b60405180910390f35b34801561029057600080fd5b50610299610806565b6040516102a69190610ec7565b60405180910390f35b3480156102bb57600080fd5b506102c461082c565b6040516102d19190610e6b565b60405180910390f35b3480156102e657600080fd5b506102ef610832565b005b3480156102fd57600080fd5b506103066108ec565b6040516103139190610e6b565b60405180910390f35b6103246108f6565b005b34801561033257600080fd5b5061033b610a27565b60405161034891906113c2565b60405180910390f35b34801561035d57600080fd5b5061037860048036038101906103739190610fda565b610c09565b604051610388949392919061142e565b60405180910390f35b6000600354905090565b60008054906101000a900473ffffffffffffffffffffffffffffffffffffffff1681565b60045481565b60008060008060008060008054906101000a900473ffffffffffffffffffffffffffffffffffffffff16600160009054906101000a900473ffffffffffffffffffffffffffffffffffffffff16600254600354600454600560009054906101000a900460ff16955095509550955095509550909192939495565b60025481565b600560009054906101000a900460ff1681565b600560009054906101000a900460ff166104a7576040517f08c379a000000000000000000000000000000000000000000000000000000000815260040161049e906114ec565b60405180910390fd5b60006006819055506000600160009054906101000a900473ffffffffffffffffffffffffffffffffffffffff1673ffffffffffffffffffffffffffffffffffffffff166108fc6004549081150290604051600060405180830381858888f1935050505090508061054c576040517f08c379a000000000000000000000000000000000000000000000000000000000815260040161054390611558565b60405180910390fd5b50565b60006007828154811061056557610564611578565b5b906000526020600020906003020160010154116105b7576040517f08c379a00000000000000000000000000000000000000000000000000000000081526004016105ae906115f3565b60405180910390fd5b600781815481106105cb576105ca611578565b5b906000526020600020906003020160020160009054906101000a900460ff161561062a576040517f08c379a000000000000000000000000000000000000000000000000000000000815260040161062190611685565b60405180910390fd5b6001600782815481106106405761063f611578565b5b906000526020600020906003020160020160006101000a81548160ff0219169083151502179055506007818154811061067c5761067b611578565b5b9060005260206000209060030201600101546004600082825461069f91906116d4565b9250508190555050565b6003548211156106ee576040517f08c379a00000000000000000000000000000000000000000000000000000000081526004016106e59061179c565b60405180910390fd5b600760405180608001604052808581526020018481526020016000151581526020018373ffffffffffffffffffffffffffffffffffffffff168152509080600181540180825580915050600190039060005260206000209060030201600090919091909150600082015181600001908051906020019061076f929190610d6f565b506020820151816001015560408201518160020160006101000a81548160ff02191690831515021790555060608201518160020160016101000a81548173ffffffffffffffffffffffffffffffffffffffff021916908373ffffffffffffffffffffffffffffffffffffffff1602179055505050600660008154809291906107f6906117bc565b9190505550505050565b60065481565b600160009054906101000a900473ffffffffffffffffffffffffffffffffffffffff1681565b60035481565b60005b6006548110156108ce5760016007828154811061085557610854611578565b5b906000526020600020906003020160020160006101000a81548160ff0219169083151502179055506007818154811061089157610890611578565b5b906000526020600020906003020160010154600460008282546108b491906116d4565b9250508190555080806108c6906117bc565b915050610835565b506001600560006101000a81548160ff021916908315150217905550565b6000600654905090565b60003411610939576040517f08c379a000000000000000000000000000000000000000000000000000000000815260040161093090611876565b60405180910390fd5b60008054906101000a900473ffffffffffffffffffffffffffffffffffffffff1673ffffffffffffffffffffffffffffffffffffffff163373ffffffffffffffffffffffffffffffffffffffff16146109c7576040517f08c379a00000000000000000000000000000000000000000000000000000000081526004016109be90611908565b60405180910390fd5b600354341115610a0c576040517f08c379a0000000000000000000000000000000000000000000000000000000008152600401610a039061199a565b60405180910390fd5b3460036000828254610a1e91906119ba565b92505081905550565b6060600060065467ffffffffffffffff811115610a4757610a46611022565b5b604051908082528060200260200182016040528015610a8057816020015b610a6d610df5565b815260200190600190039081610a655790505b50905060005b600654811015610c0157600060078281548110610aa657610aa5611578565b5b9060005260206000209060030201905080604051806080016040529081600082018054610ad290611a1d565b80601f0160208091040260200160405190810160405280929190818152602001828054610afe90611a1d565b8015610b4b5780601f10610b2057610100808354040283529160200191610b4b565b820191906000526020600020905b815481529060010190602001808311610b2e57829003601f168201915b50505050508152602001600182015481526020016002820160009054906101000a900460ff161515151581526020016002820160019054906101000a900473ffffffffffffffffffffffffffffffffffffffff1673ffffffffffffffffffffffffffffffffffffffff1673ffffffffffffffffffffffffffffffffffffffff1681525050838381518110610be257610be1611578565b5b6020026020010181905250508080610bf9906117bc565b915050610a86565b508091505090565b6060600080600060078581548110610c2457610c23611578565b5b906000526020600020906003020160000160078681548110610c4957610c48611578565b5b90600052602060002090600302016001015460078781548110610c6f57610c6e611578565b5b906000526020600020906003020160020160009054906101000a900460ff1660078881548110610ca257610ca1611578565b5b906000526020600020906003020160020160019054906101000a900473ffffffffffffffffffffffffffffffffffffffff16838054610ce090611a1d565b80601f0160208091040260200160405190810160405280929190818152602001828054610d0c90611a1d565b8015610d595780601f10610d2e57610100808354040283529160200191610d59565b820191906000526020600020905b815481529060010190602001808311610d3c57829003601f168201915b5050505050935093509350935093509193509193565b828054610d7b90611a1d565b90600052602060002090601f016020900481019282610d9d5760008555610de4565b82601f10610db657805160ff1916838001178555610de4565b82800160010185558215610de4579182015b82811115610de3578251825591602001919060010190610dc8565b5b509050610df19190610e35565b5090565b60405180608001604052806060815260200160008152602001600015158152602001600073ffffffffffffffffffffffffffffffffffffffff1681525090565b5b80821115610e4e576000816000905550600101610e36565b5090565b6000819050919050565b610e6581610e52565b82525050565b6000602082019050610e806000830184610e5c565b92915050565b600073ffffffffffffffffffffffffffffffffffffffff82169050919050565b6000610eb182610e86565b9050919050565b610ec181610ea6565b82525050565b6000602082019050610edc6000830184610eb8565b92915050565b6000610eed82610e86565b9050919050565b610efd81610ee2565b82525050565b60008115159050919050565b610f1881610f03565b82525050565b600060c082019050610f336000830189610ef4565b610f406020830188610ef4565b610f4d6040830187610e5c565b610f5a6060830186610e5c565b610f676080830185610e5c565b610f7460a0830184610f0f565b979650505050505050565b6000602082019050610f946000830184610f0f565b92915050565b6000604051905090565b600080fd5b600080fd5b610fb781610e52565b8114610fc257600080fd5b50565b600081359050610fd481610fae565b92915050565b600060208284031215610ff057610fef610fa4565b5b6000610ffe84828501610fc5565b91505092915050565b600080fd5b600080fd5b6000601f19601f8301169050919050565b7f4e487b7100000000000000000000000000000000000000000000000000000000600052604160045260246000fd5b61105a82611011565b810181811067ffffffffffffffff8211171561107957611078611022565b5b80604052505050565b600061108c610f9a565b90506110988282611051565b919050565b600067ffffffffffffffff8211156110b8576110b7611022565b5b6110c182611011565b9050602081019050919050565b82818337600083830152505050565b60006110f06110eb8461109d565b611082565b90508281526020810184848401111561110c5761110b61100c565b5b6111178482856110ce565b509392505050565b600082601f83011261113457611133611007565b5b81356111448482602086016110dd565b91505092915050565b61115681610ea6565b811461116157600080fd5b50565b6000813590506111738161114d565b92915050565b60008060006060848603121561119257611191610fa4565b5b600084013567ffffffffffffffff8111156111b0576111af610fa9565b5b6111bc8682870161111f565b93505060206111cd86828701610fc5565b92505060406111de86828701611164565b9150509250925092565b600081519050919050565b600082825260208201905092915050565b6000819050602082019050919050565b600081519050919050565b600082825260208201905092915050565b60005b8381101561124e578082015181840152602081019050611233565b8381111561125d576000848401525b50505050565b600061126e82611214565b611278818561121f565b9350611288818560208601611230565b61129181611011565b840191505092915050565b6112a581610e52565b82525050565b6112b481610f03565b82525050565b6112c381610ea6565b82525050565b600060808301600083015184820360008601526112e68282611263565b91505060208301516112fb602086018261129c565b50604083015161130e60408601826112ab565b50606083015161132160608601826112ba565b508091505092915050565b600061133883836112c9565b905092915050565b6000602082019050919050565b6000611358826111e8565b61136281856111f3565b93508360208202850161137485611204565b8060005b858110156113b05784840389528151611391858261132c565b945061139c83611340565b925060208a01995050600181019050611378565b50829750879550505050505092915050565b600060208201905081810360008301526113dc818461134d565b905092915050565b600082825260208201905092915050565b600061140082611214565b61140a81856113e4565b935061141a818560208601611230565b61142381611011565b840191505092915050565b6000608082019050818103600083015261144881876113f5565b90506114576020830186610e5c565b6114646040830185610f0f565b6114716060830184610eb8565b95945050505050565b7f43616e6e6f742072656c656173652066756e647320756e74696c20616c6c207360008201527f70656e64696e672070726f706f73616c732061726520617070726f7665642e00602082015250565b60006114d6603f836113e4565b91506114e18261147a565b604082019050919050565b60006020820190508181036000830152611505816114c9565b9050919050565b7f4661696c656420746f2073656e64204574686572000000000000000000000000600082015250565b60006115426014836113e4565b915061154d8261150c565b602082019050919050565b6000602082019050818103600083015261157181611535565b9050919050565b7f4e487b7100000000000000000000000000000000000000000000000000000000600052603260045260246000fd5b7f5370656e64696e67207265717565737420646f6573206e6f742065786973742e600082015250565b60006115dd6020836113e4565b91506115e8826115a7565b602082019050919050565b6000602082019050818103600083015261160c816115d0565b9050919050565b7f5370656e64696e6720726571756573742068617320616c72656164792062656560008201527f6e20617070726f7665642e000000000000000000000000000000000000000000602082015250565b600061166f602b836113e4565b915061167a82611613565b604082019050919050565b6000602082019050818103600083015261169e81611662565b9050919050565b7f4e487b7100000000000000000000000000000000000000000000000000000000600052601160045260246000fd5b60006116df82610e52565b91506116ea83610e52565b9250827fffffffffffffffffffffffffffffffffffffffffffffffffffffffffffffffff0382111561171f5761171e6116a5565b5b828201905092915050565b7f5370656e64696e67207265717565737420616d6f756e742063616e6e6f74206560008201527f7863656564207468652072656d61696e696e672062616c616e63652e00000000602082015250565b6000611786603c836113e4565b91506117918261172a565b604082019050919050565b600060208201905081810360008301526117b581611779565b9050919050565b60006117c782610e52565b91507fffffffffffffffffffffffffffffffffffffffffffffffffffffffffffffffff82036117f9576117f86116a5565b5b600182019050919050565b7f446f6e6174696f6e20616d6f756e74206d75737420626520677265617465722060008201527f7468616e20302e00000000000000000000000000000000000000000000000000602082015250565b60006118606027836113e4565b915061186b82611804565b604082019050919050565b6000602082019050818103600083015261188f81611853565b9050919050565b7f4f6e6c792074686520646f6e6f722063616e206d616b65206120646f6e61746960008201527f6f6e2e0000000000000000000000000000000000000000000000000000000000602082015250565b60006118f26023836113e4565b91506118fd82611896565b604082019050919050565b60006020820190508181036000830152611921816118e5565b9050919050565b7f446f6e6174696f6e20616d6f756e742063616e6e6f742065786365656420746860008201527f652072656d61696e696e672062616c616e63652e000000000000000000000000602082015250565b60006119846034836113e4565b915061198f82611928565b604082019050919050565b600060208201905081810360008301526119b381611977565b9050919050565b60006119c582610e52565b91506119d083610e52565b9250828210156119e3576119e26116a5565b5b828203905092915050565b7f4e487b7100000000000000000000000000000000000000000000000000000000600052602260045260246000fd5b60006002820490506001821680611a3557607f821691505b602082108103611a4857611a476119ee565b5b5091905056fea26469706673582212203f748fe728e758c34610ff5009ab88bc96ba303bb9575cf4d8c6828fd69100c164736f6c634300080d0033",
  "immutableReferences": {},
  "source": "// SPDX-License-Identifier: GPL-3.0\r\n\r\npragma solidity >=0.7.0 <0.9.0;\r\n\r\ncontract DonationContract {\r\n    address payable public donor;\r\n    address payable public ngo;\r\n    uint public donationAmount;\r\n    uint public balance;\r\n    uint public spentAmount;\r\n    bool public spendingApproved;\r\n\r\n   \r\n    uint public requestCounter;\r\n    \r\n    struct SpendingRequest {\r\n        string description;\r\n        uint amount;\r\n        bool approved;\r\n        address payable recipient;\r\n    }\r\n    SpendingRequest[] spendingReq;\r\n    \r\n    constructor(address payable _donor, address payable _ngo) {\r\n        donor = _donor;\r\n        ngo = _ngo;\r\n        balance = 10000000000000000000000000.0;\r\n    }\r\n    \r\n    modifier onlyDonor() {\r\n        require(msg.sender == donor, \"Only the donor can call this function.\");\r\n        _;\r\n    }\r\n    \r\n    modifier onlyNgo() {\r\n        require(msg.sender == ngo, \"Only the NGO can call this function.\");\r\n        _;\r\n    }\r\n    \r\n    function donate() external payable {\r\n       \r\n        require(msg.value > 0, \"Donation amount must be greater than 0.\");\r\n        require(msg.sender == donor, \"Only the donor can make a donation.\");\r\n        require(msg.value <= balance, \"Donation amount cannot exceed the remaining balance.\");\r\n        balance -= msg.value; \r\n        //bool sent = ngo.send(msg.value);\r\n        //require(sent, \"Failed to send Ether\");\r\n        \r\n    }\r\n\r\n\r\n    \r\n    function createSpendingRequest(string memory _description, uint _amount, address payable _recipient) external payable {\r\n        require(_amount <= balance, \"Spending request amount cannot exceed the remaining balance.\");\r\n        spendingReq.push(SpendingRequest(_description, _amount, false, _recipient));\r\n        requestCounter++;\r\n    \r\n    }\r\n    \r\n    function approveSpendingRequest(uint _requestId) public  {\r\n        require(spendingReq[_requestId].amount > 0, \"Spending request does not exist.\");\r\n        require(!spendingReq[_requestId].approved, \"Spending request has already been approved.\");\r\n        spendingReq[_requestId].approved = true;\r\n        spentAmount += spendingReq[_requestId].amount;\r\n    }\r\n    \r\n    function releaseFunds() public  payable{\r\n        //require(spentAmount == donationAmount, \"Cannot release funds until all donations are spent.\");\r\n        require(spendingApproved, \"Cannot release funds until all spending proposals are approved.\");\r\n        \r\n        requestCounter = 0;\r\n        bool sent = ngo.send(spentAmount);\r\n        require(sent, \"Failed to send Ether\");\r\n    }\r\n    \r\n    function approveAllSpendingRequests() public  {\r\n        for (uint i = 0; i < requestCounter; i++) {\r\n            spendingReq[i].approved = true;\r\n            spentAmount += spendingReq[i].amount;\r\n        }\r\n        spendingApproved = true;\r\n    }\r\n    \r\n    function getDonationDetails() public view returns (address, address, uint, uint, uint, bool) {\r\n        return (donor, ngo, donationAmount, balance, spentAmount, spendingApproved);\r\n    }\r\n    \r\n    function getSpendingRequest(uint _requestId) public view returns (string memory, uint, bool, address payable) {\r\n        return (spendingReq[_requestId].description, spendingReq[_requestId].amount, spendingReq[_requestId].approved, spendingReq[_requestId].recipient);\r\n    }\r\n    \r\n    function getSpendingRequestCount() external view returns (uint) {\r\n        return requestCounter;\r\n    }\r\n\r\n    function getBalance() public view returns (uint) {\r\n        return balance;\r\n    }\r\n\r\n    function getAllRequests() public view returns (SpendingRequest[] memory){\r\n SpendingRequest[]    memory id = new SpendingRequest[](requestCounter);\r\n      for (uint i = 0; i < requestCounter; i++) {\r\n          SpendingRequest storage member = spendingReq[i];\r\n          id[i] = member;\r\n      }\r\n      return id;\r\n    }\r\n}\r\n",
  "sourcePath": "F:\\ISM_JCOMP\\donation_server\\contracts\\DonationContract.sol",
  "compiler": {
    "name": "solc",
    "version": "0.8.13+commit.abaa5c0e.Emscripten.clang"
  },
  "schemaVersion": "3.4.7",
  "updatedAt": "2023-04-10T09:56:50.055Z",
  "networkType": "ethereum",
  "devdoc": {
    "kind": "dev",
    "methods": {},
    "version": 1
  },
  "userdoc": {
    "kind": "user",
    "methods": {},
    "version": 1
  }
}